:020000040800F2
:1000000000000120E5060008350700083507000854
:100010003507000835070008350700080000000014
:10002000000000000000000000000000350700088C
:1000300035070008000000003507000835070008F4
:1000400000000000350700083507000835070008E4
:100050003507000835070008350700083507000890
:1000600035070008350700083507000800000000C4
:100070000000000000000000000000000000000080
:10008000000000000000000035070008000000002C
:10009000000000000000000000000000350700081C
:1000A0003507000835070008350700083507000840
:1000B0003507000835070008000000003507000874
:1000C0003507000835070008350700083507000820
:1000D00035070008000000000000000000000000DC
:1000E0003507000835070008350700080000000044
:1000F0000000000000000000000000000000000000
:100100000000000035070008000000003507000867
:1001100000000000000000000000000000000000DF
:1001200000000000000000000000000000000000CF
:1001300000000000000000000000000000000000BF
:10014000000000000000000000000000350700086B
:10015000000000000000000000000000000000009F
:100160003507000835070008000000000000000007
:10017000000000000000000000000000000000007F
:10018000000000003507000800000000000000002B
:040190003507000827
:1001940010B5054C237833B9044B13B10448AFF3BD
:1001A40000800123237010BD3C04002000000000E7
:1001B4009C08000808B5034B1BB103490348AFF37F
:1001C400008008BD00000000400400209C080008D6
:1001D40080B485B000AF0023FB73C9E0FA7B6A49A1
:1001E40013469B0013440B441B78BB73BB7B032B4C
:1001F40000F2C380654B1B6BBA7B012101FA02F24A
:100204001146624A0B431363BB7B614A52F82330A5
:10021400BB60FA7B5C4913469B0013440B440133D7
:100224001B78FB71BB681B68FA795200013201210B
:1002340001FA02F2D2431A40BB681A60FA7B5249AF
:1002440013469B0013440B4402331B78002B28D025
:10025400BB681B68FA795200012101FA02F21A43C1
:10026400BB681A60FA7B484913469B0013440B444D
:1002740004331B78002B09D0BB685B68FA79012131
:1002840001FA02F21A43BB685A606EE0BB685B680D
:10029400FA79012101FA02F2D2431A40BB685A608A
:1002A40063E0BB681B68FA795200012101FA02F28B
:1002B400D2431A40BB681A60FA7B334913469B0049
:1002C40013440B4403331B78012B16D1BB68DB6842
:1002D400FA795200012101FA02F21A43BB68DA608A
:1002E400BB68DB68FA7952000132012101FA02F29B
:1002F400D2431A40BB68DA6037E0FA7B22491346DE
:100304009B0013440B4403331B78022B16D1BB68A8
:10031400DB68FA7952000132012101FA02F21A4330
:10032400BB68DA60BB68DB68FA795200012101FA24
:1003340002F2D2431A40BB68DA6016E0BB68DB689D
:10034400FA795200012101FA02F2D2431A40BB6841
:10035400DA60BB68DB68FA7952000132012101FAE4
:1003640002F2D2431A40BB68DA60FB7B0133FB73B1
:10037400FB7B072B7FF632AF00E000BF00BF1437D2
:10038400BD465DF8047B7047B4080008003802409D
:100394000000002080B487B000AF03463960FB71D1
:1003A400FB79012B5FD800237B6151E0FA79314955
:1003B40013469B001344CA187B69134401331B780A
:1003C400FB74FB7C072B40D8FA7C2B4913469B001B
:1003D40013440B441B78BB74FA7C274913469B00D7
:1003E40013440B4402331B78002B2ED0BB7C234ACE
:1003F40052F82330FB607B693A6813441B78002B66
:1004040011D0FB685969FA7C1B4813469B001344BE
:10041400034401331B781A460123934041EA030243
:10042400FB685A6111E0FB685969FA7C124813466B
:100434009B001344034401331B781A460123934061
:10044400DB4301EA0302FB685A617B6901337B6188
:10045400FA79084913469B0013440B441B781A4647
:100464007B699342A2DB00BF1C37BD465DF8047B69
:10047400704700BFDC080008B40800080000002032
:1004840080B487B000AF03463960FB71FB79012B60
:100494004ED800237B6140E0FA79284913469B003B
:1004A4001344CA187B69134401331B78FB74FB7C27
:1004B400072B2FD8FA7C224913469B0013440B4484
:1004C4001B78BB74FA7C1E4913469B0013440B44EF
:1004D40002331B78002B1DD1BB7C1A4A52F82330FF
:1004E400FB60FA7C164913469B0013440B4401330A
:1004F4001B781A46012393401A46FB681B69134074
:10050400002B14BF01230023D9B27B693A6813443A
:100514000A461A707B6901337B61FA7907491346ED
:100524009B0013440B441B781A467B699342B3DB4C
:1005340000BF1C37BD465DF8047B7047DC0800082B
:10054400B40800080000002080B582B000AFFFF7B7
:100554003FFE3B4619460120FFF792FF3B461946F2
:100564000020FFF717FF00237B6002E07B68013364
:100574007B607B684CF24F329342F7DDE9E7000081
:1005840080B500AF164BD3F88830154A43F4700396
:10059400C2F88830134B1B68124A43F001031360FE
:1005A400104B00229A600F4B1B680E4A23F0847391
:1005B40023F4803313600B4B0B4A5A60094B1B68BE
:1005C400084A23F480231360064B0022DA6000F00B
:1005D4000DF8034B4FF000629A6000BF80BD00BF6E
:1005E40000ED00E0003802401030002480B483B0F5
:1005F40000AF00237B6000233B60354B1B68344A0B
:1006040043F480331360324B1B6803F400333B60C4
:100614007B6801337B603B68002B03D17B68B3F5B7
:10062400A04FF0D12A4B1B6803F40033002B02D0F7
:1006340001233B6001E000233B603B68012B40D178
:10064400234B1B6C224A43F080531364214B1B68D9
:10065400204A43F4404313601D4B1D4A9B6893603A
:100664001B4B1B4A9B689360194B9B68184A43F4C5
:1006740080539360164B184A5A60154B1B68144AF2
:1006840043F08073136000BF114B1B6803F00073C9
:10069400002BF9D0114B40F202721A600C4B9B688C
:1006A4000B4A23F003039360094B9B68084A43F009
:1006B4000203936000BF064B9B6803F00C03082BF6
:1006C400F9D100BF0C37BD465DF8047B704700BF0D
:1006D400003802400070004019544107003C0240B9
:1006E4000D4885460D480E490E4A002302E0D458B1
:1006F400C4500433C4188C42F9D30B4A0B4C002366
:1007040001E013600432A242FBD3FFF739FF00F08B
:1007140011F8FFF719FFFEE7000001200000002098
:100724003C040020F80800083C0400207C0400205D
:10073400FEE7000070B50D4E0D4D761BB61006D0C9
:100744000024013455F8043B9847A642F9D1094ED8
:10075400094D761B00F0A0F8B61006D00024013431
:1007640055F8043B9847A642F9D170BDEC0800083F
:10077400EC080008F4080008EC080008024B13B168
:10078400024800F005B8704700000000A107000807
:10079400002301461A46184600F01EB838B50A4C24
:1007A4000A4D641BA4100AD004F18043013B05EBFD
:1007B4008305013C55F804399847002CF9D1BDE86C
:1007C400384000F06FB800BFF8080008F4080008CB
:1007D400704700BF704700BF2DE9F8432B4D064614
:1007E400286898460F469146FFF7F2FF284B1C688D
:1007F400D4F84831002B3DD05A681F2A0DDC02F191
:10080400010C16BB0232C3F804C0286843F82270F6
:10081400FFF7E0FF0020BDE8F8831E4B7BB34FF4E5
:10082400C870AFF30080034648B3D4F848210021D0
:10083400C0E900214FF0010CC4F848010A46C0F891
:100844008811C0F88C11002EDCD003EB8201012446
:10085400C1F88890D3F8880194402043022EC3F84D
:100864008801C1F80881CDD1D3F88C110C43C3F8A9
:100874008C41C7E704F5A673C4F84831BCE728687F
:10088400FFF7A8FF4FF0FF30C5E700BF3804002092
:10089400E808000800000000F8B500BFF8BC08BC78
:1008A4009E467047F8B500BFF8BC08BC9E4670472A
:1008B400000000010000010001000003000100002D
:1008C400040001000005010000000601000000070B
:1008D40001000000080100000404050607040001EB
:0808E4000203000010000020D7
:0808EC0081070008B9010008B2
:0408F4009501000862
:1008F800000002400004024000080240000C0240D0
:1009080000000000FC02002064030020CC0300204B
:1009180000000000000000000000000000000000CF
:1009280000000000000000000000000000000000BF
:1009380000000000000000000000000000000000AF
:10094800000000000000000000000000000000009F
:10095800000000000000000000000000000000008F
:10096800000000000000000000000000000000007F
:10097800000000000000000000000000000000006F
:10098800000000000000000000000000000000005F
:10099800000000000000000000000000000000004F
:1009A800000000000000000001000000000000003E
:1009B8000E33CDAB34126DE6ECDE05000B00000003
:1009C800000000000000000000000000000000001F
:1009D800000000000000000000000000000000000F
:1009E80000000000000000000000000000000000FF
:1009F80000000000000000000000000000000000EF
:0C0D280000000000000000005804002043
:04000005080006E504
:00000001FF
